:020000040000FA
:100000000C9463060C9494060C9494060C94940639
:100010000C9494060C9494060C9494060C949406F8
:100020000C9494060C9494060C9494060C949406E8
:100030000C9494060C9494060C9494060C949406D8
:100040000C9494060C9494060C9494060C949406C8
:100050000C9494060C9494060C9494060C94A0248E
:100060000C9494060C946A240C9440240C949406EA
:100070000C9494060C9494060C9494060C94940698
:100080000C9494060C9494060C9494060C94940688
:100090000C9494060C9494060C9494060C94EA2404
:1000A0000C9494060C9494060C9494060C94940668
:1000B0000C9494060C9494060C9494060C94940658
:1000C0000C9494060C9494060C9494060C94940648
:1000D0000C9494060C9494060C940A240C94E0233B
:1000E0000C9494060C9499080C9493120C94ED14AF
:1000F0000C9435080C940E260C946F070C94721314
:100100000C94DA130C9486140C946C080C9450081C
:100110000C94CD100C94F61A0C94FC140C94310829
:100120000C94D80D0C94CD060C94BC070C94390893
:100130000C94562F0C942D070C94CC060C94FC06B2
:100140000C943C1B0C94CF060C940F150C94930E3E
:100150000C9442080C944C080C945A080C94F71810
:100160000C945E080C945A130C9462080C94A11819
:100170000C9454080C944A130C9466130C94CE06F9
:100180000C9443150C941F070C94FE110C942D082D
:100190000C9427080C9476120C94910D0C94361B39
:1001A0000C9468080C949F110C940B070C94780A1B
:1001B0000C9446080C943C080C9467080C94031F9C
:1001C0000C9416150C94480D00000000003E5B4F87
:1001D0005B3E3E6B4F6B3E1C3E7C3E1C183C7E3CA7
:1001E000181C577D571C1C5E7F5E1C00183C1800B5
:1001F000FFE7C3E7FF0018241800FFE7DBE7FF3045
:10020000483A060E2629792926407F050507407FB2
:1002100005253F5A3CE73C5A7F3E1C1C08081C1C25
:100220003E7F14227F22145F5F005F5F06097F011B
:100230007F006689956A606060606094A2FFA29406
:1002400008047E040810207E201008082A1C0808D4
:100250001C2A08081E101010100C1E0C1E0C303822
:100260003E3830060E3E0E06000000000000005F23
:1002700000000007000700147F147F14242A7F2A3F
:100280001223130864623649562050000807030001
:10029000001C2241000041221C002A1C7F1C2A084D
:1002A000083E0808008070300008080808080000B0
:1002B00060600020100804023E5149453E00427F24
:1002C000400072494949462141494D331814127F73
:1002D0001027454545393C4A494931412111090713
:1002E0003649494936464949291E00001400000094
:1002F0004034000000081422411414141414004166
:1003000022140802015909063E415D594E7C121122
:10031000127C7F494949363E414141227F4141415A
:100320003E7F494949417F090909013E41415173D5
:100330007F0808087F00417F41002040413F017F46
:10034000081422417F404040407F021C027F7F040E
:1003500008107F3E4141413E7F090909063E415157
:10036000215E7F09192946264949493203017F0147
:10037000033F4040403F1F2040201F3F4038403F48
:10038000631408146303047804036159494D43005E
:100390007F4141410204081020004141417F040295
:1003A000010204404040404000030708002054542C
:1003B00078407F284444383844444428384444280A
:1003C0007F385454541800087E090218A4A49C785D
:1003D0007F0804047800447D40002040403D007FB9
:1003E0001028440000417F40007C047804787C0899
:1003F0000404783844444438FC182424181824246D
:1004000018FC7C08040408485454542404043F4451
:10041000243C4040207C1C2040201C3C4030403C80
:1004200044281028444C9090907C4464544C4400E0
:100430000836410000007700000041360800020144
:100440000204023C2623263C1EA1A161123A404030
:10045000207A3854545559215555794122545478AD
:1004600042215554784020545579400C1E52721246
:1004700039555555593954545459395554545800CF
:1004800000457C410002457D420001457C407D12D3
:1004900011127DF0282528F07C5455450020545435
:1004A0007C547C0A097F4932494949323A444444E0
:1004B0003A324A4848303A4141217A3A424020781B
:1004C000009DA0A07D3D4242423D3D4040403D3C1C
:1004D00024FF2424487E4943662B2FFC2F2BFF0941
:1004E00029F620C0887E0903205454794100004435
:1004F0007D413048484A32384040227A007A0A0A20
:10050000727D0D19317D2629292F28262929292692
:1005100030484D4020380808080808080808382FD7
:1005200010C8ACBA2F102834FA00007B0000081461
:100530002A142222142A14085500550055AA55AA37
:1005400055AAFF55FF55FF000000FF00101010FFD7
:1005500000141414FF001010FF00FF1010F010F032
:10056000141414FC001414F700FF0000FF00FF1423
:1005700014F404FC141417101F10101F101F14146F
:10058000141F00101010F0000000001F10101010B9
:100590001F10101010F010000000FF1010101010AD
:1005A00010101010FF10000000FF140000FF00FFEB
:1005B00000001F10170000FC04F414141710171487
:1005C00014F404F40000FF00F714141414141414A9
:1005D000F700F7141414171410101F101F1414141C
:1005E000F4141010F010F000001F101F0000001F86
:1005F00014000000FC140000F010F01010FF10FFB9
:10060000141414FF141010101F00000000F010FF4D
:10061000FFFFFFFFF0F0F0F0F0FFFFFF0000000031
:1006200000FFFF0F0F0F0F0F3844443844FC4A4AB5
:100630004A347E02020606027E027E02635549416A
:10064000633844443C04407E201E2006027E0202A1
:1006500099A5E7A5991C2A492A1C4C7201724C30B5
:100660004A4D4D303048784830BC625A463D3E498C
:100670004949007E0101017E2A2A2A2A2A44445F30
:10068000444440514A444040444A51400000FF0124
:1006900003E080FF000008086B6B08361236243632
:1006A000060F090F06000018180000001010003097
:1006B00040FF0101001F01011E00191D1712003C1F
:1006C0003C3C3C0000000000000103070F1F3F7F7F
:1006D0000080C0E0F0F8FCFE0000200023002600AF
:1006E00029002C002F003200000100000301060148
:1006F000090100000A0B02090C0D0E080703040192
:1007000000000000000000000000000000000000E9
:1007100000000000000000000000000000001211B6
:1007200010000000000000000000000000000000B9
:10073000000000000000000000002100240027004D
:100740002A002D00300033000101000004010701E0
:100750000A01DB40A4A62EAF2000A1C8D300408D23
:10076000AED580A80000600000000000000000007E
:100770000000000000E00000000000000000000099
:1007800000000001E0000000000000000000000088
:10079000000001F000000000000000000000000068
:1007A0000003F00000000000000000000000000056
:1007B00007F000000000000000000000000000073B
:1007C000F8000000000000000000000000000FF82A
:1007D00000000003C0007E000001E0007F0FF80071
:1007E000000003C000FE000001E000FFEFF8000081
:1007F0000003C000FE000001E000FFFFF800000061
:1008000003C000F00000000F007FFE7FC000000367
:10081000C000F00000000F003FFE7FF83FF1FBCF6B
:10082000FCFEF3BC3DEFE01FFE7FFF7FFBFFDFFE22
:10083000FEFFBC3DEFE01FC6FFFF7FFBFFDFFEFEBC
:10084000FFBC3DEFE00FE3C7FE787BC3DE1EF0FF89
:10085000BC3DEF0007FF87FC787BC3DE1EF0F83C51
:100860003DEF0001FFFFF0007BC3C01EF0F03C3DF8
:10087000EF0001F37FE03FFBC3CFFEF0F03C3DEF24
:100880000003E33F807FFBC3DFFEF0F03C3DEF0061
:1008900007E73C00787BC3DE1EF0F03C3DEF00072D
:1008A000FFBE00787BC3DE1EF0F03C3DEF0007FF8B
:1008B000FE00787BC3DE1EF0F03C3DEF000FFFFE34
:1008C000007FFBFFDFFEF0F03FFDEFE00FFFFF00DA
:1008D0007FFBFFDFFEF0F03FFDEFE00FF9FF003E92
:1008E00079F9CF9EF0F01F3DE7E01FF1FF00000017
:1008F0000000000000000000001F80FF007FFFFFDD
:10090000FFFFFFFFFFFFFFE01C007F007FFFFFFFF7
:10091000FEB46D888D18E000001F007FFFFFFFFE12
:1009200095AD7DB577E000000F007FFFFFFFFEA5CE
:10093000AD9D8D19E0000006007FFFFFFFFEB5AD05
:10094000EDB57EE000000000000180000000000026
:10095000000000000380000000000000000000070D
:10096000C000000000000000000007C00000000000
:1009700000000000000FC0000000000000000000A8
:100980001FE00000000000000000001FE000000069
:100990000000000000003FE0000000000000000038
:1009A000003FF00000000000000000007FF00000A9
:1009B00000000000001FF87FF000000000000000B1
:1009C0003FFE7FF0000000000000003FFF7FF000CE
:1009D0000000000000001FFFFBE00000000000001E
:1009E000000FFFF9FFC00000000000000FFFF9FF3B
:1009F000F800000000000007FFF1FFFF000000000A
:100A0000000003FC73FFFF80000000000001FE3FB8
:100A1000FFFF80000000000000FF1E0FFF0000002D
:100A2000000000007FFE1FFC000000000000003FEF
:100A3000FFFFF8000000000000000FDFFFE00000F3
:100A400000000000001F19FFC000000000000000AF
:100A50003F3CFF00000000000000007E7CF800002A
:100A60000000000000007FFE7C000000000000008D
:100A700000FFFFFC0000000000000000FFFFFE0080
:100A800000000000000000FFFFFE0000000000006A
:100A90000001FFEFFE0000000000000001FFCFFE9C
:100AA0000000000000000003FF07FE00000000003F
:100AB000000003FC07FE0000000000000003F0033C
:100AC000FE00000000000000018000FE00000000A9
:100AD0000000000000007E00000000000000000098
:100AE000003E000000000000000000000C000000BC
:100AF000000000078000FC000003C0000000078029
:100B000001FC000003C0000000078001FC0000039E
:100B1000C0000000078001E00000001E0000000788
:100B20008001E00000001E007FE3F79FF9FDE778F9
:100B30007BDFC0FFF7FFBFFDFDFF787BDFC0FFF766
:100B4000FFBFFDFDFF787BDFC0F0F787BC3DE1FF15
:100B5000787BDE00F0F787BC3DE1F0787BDE0000BB
:100B6000F787803DE1E0787BDE007FF7879FFDE13E
:100B7000E0787BDE00FFF787BFFDE1E0787BDE00F9
:100B8000F0F787BC3DE1E0787BDE00F0F787BC3D05
:100B9000E1E0787BDE00F0F787BC3DE1E0787BDECA
:100BA00000FFF7FFBFFDE1E07FFBDFC0FFF7FFBF06
:100BB000FDE1E07FFBDFC07CF3F39F3DE1E03E7BA6
:100BC000CFC00000000000000000000000FFFFFF99
:100BD000FFFFFFFFFFFFFFC0FFFFFFFFFD68DB110F
:100BE0001A31C0FFFFFFFFFD2B5AFB6AEFC0FFFF6A
:100BF000FFFFFD4B5B3B1A33C0FFFFFFFFFD6B5B4D
:100C0000DB6AFDC0436F6E6E6563746564434220AA
:100C10006973203078002200FF210001021020209B
:100C20000808102040102040800201020108040240
:100C300001010204081020408080402010080402B6
:100C4000018004020180402010080402010804020F
:100C50000101020408102040800102040810204015
:100C60008000002200250028002B002E00310034D7
:100C70000002010000050108010B0105050505073B
:100C80000508080808020202020A0A080804040407
:100C90000401010101010101010303030303030333
:100CA00003040707070C0C0C0C0C0C0C0C020202C2
:100CB0000206060606060606060B0B0B0B0B0B0BB5
:100CC0000B000E26562F11241FBECFEFD1E2DEBF40
:100CD000CDBF00E00CBF2AE0A4EEB5E001C01D923C
:100CE000AD38B207E1F715E0A0E0B2E0EAE2F4E6E1
:100CF00000E00BBF02C007900D92A43EB107D9F7E8
:100D000016E0C2E6D6E000E006C021970109802F78
:100D1000FE010E94C52FC136D10780E00807A9F760
:100D20000E941A280C9403320C940000682776273E
:100D300067277627CB0124E0880F991F2A95E1F7D2
:100D40008827907F68277927CB01892F992782955B
:100D50008F7068277927CB0145E0969587954A954E
:100D6000E1F7887F977086279727089580917B0009
:100D7000877F80937B0085E480937C0080917A005C
:100D8000806480937A0080917A0086FDFCCF809108
:100D90007800909179000895089508950895AF928C
:100DA000BF92CF92DF92EF92FF920F931F93CF9358
:100DB000DF936C017B018B01040F151FEB015E01BA
:100DC000AE18BF08C017D10759F06991D601ED914F
:100DD000FC910190F081E02DC6011995892B79F7DE
:100DE000C501DF91CF911F910F91FF90EF90DF90A0
:100DF000CF90BF90AF900895FC01538D448D252F67
:100E000030E0842F90E0821B930B541710F0CF96A4
:100E1000089501970895FC01918D828D981761F0D6
:100E2000A28DAE0FBF2FB11D5D968C91928D9F5FED
:100E30009F73928F90E008958FEF9FEF0895FC01CC
:100E4000918D828D981731F0828DE80FF11D858D7F
:100E500090E008958FEF9FEF0895FC01918D228D12
:100E6000892F90E0805C9F4F821B91098F73992797
:100E7000089588E298E00E942D0721E0892B09F46B
:100E800020E0822F089582E597E00E942D0721E05F
:100E9000892B09F420E0822F0895FC01A48DA80F6E
:100EA000B92FB11DA35ABF4F2C91848D90E00196AC
:100EB0008F739927848FA689B7892C93A089B189CC
:100EC0008C91837080648C93938D848D981306C06D
:100ED0000288F389E02D80818F7D80830895EF92D1
:100EE000FF920F931F93CF93DF93EC0181E0888FE4
:100EF0009B8D8C8D98131AC0E889F989808185FFB4
:100F000015C09FB7F894EE89FF896083E889F98955
:100F100080818370806480839FBF81E090E0DF9157
:100F2000CF911F910F91FF90EF900895F62E0B8DAA
:100F300010E00F5F1F4F0F731127E02E8C8D8E1165
:100F40000CC00FB607FCFACFE889F989808185FFCC
:100F5000F5CFCE010E944D07F1CFEB8DEC0FFD2FA9
:100F6000F11DE35AFF4FF0829FB7F8940B8FEA8987
:100F7000FB8980818062CFCFCF93DF93EC01888D96
:100F80008823B9F0AA89BB89E889F9898C9185FD04
:100F900003C0808186FD0DC00FB607FCF7CF8C9192
:100FA00085FFF2CF808185FFEDCFCE010E944D07F6
:100FB000E9CFDF91CF91089580E090E0892B29F06F
:100FC0000E94430781110E94000080E090E0892B7D
:100FD00049F080E090E0892B29F00E940000811107
:100FE0000E94000080E090E0892B49F080E090E0D2
:100FF000892B29F00E94000081110E94000080E0EE
:1010000090E0892B29F00E94390781110C9400008F
:1010100008958150823108F05AC0E82FF0E0882707
:10102000EB5EF74F8F4F0C94C52F35083908270812
:101030002D08310867083C08420846084C0850084B
:1010400054085A085E086708620868086C088091AE
:1010500080008F77809380000895809180008F7D3D
:10106000F9CF80918000877FF5CF84B58F7784BDDD
:10107000089584B58F7DFBCF8091B0008F778093EA
:10108000B00008958091B0008F7DF9CF80919000DD
:101090008F77809390000895809190008F7DF9CF95
:1010A00080919000877FF5CF8091A0008F7780930B
:1010B000A00008958091A0008F7DF9CF8091A000BD
:1010C000877FF5CF809120018F778093200108954D
:1010D000809120018F7DF9CF80912001877FF5CF0E
:1010E000CF93DF93282F30E0F901EE50F94F849130
:1010F000F901E55EF34FD491F901E558F34FC4913E
:10110000CC23A1F081110E940908EC2FF0E0EE0F32
:10111000FF1FE852F94FA591B491EC91ED2381E0C6
:1011200090E009F480E0DF91CF91089580E090E0B5
:10113000FACF82E40C9470081F93CF93DF93282F8B
:1011400030E0F901EE50F94F8491F901E55EF34F7B
:10115000D491F901E558F34FC491CC23A9F0162F8F
:1011600081110E940908EC2FF0E0EE0FFF1FEF59EC
:10117000F34FA591B4918FB7F894EC91111108C079
:10118000D095DE23DC938FBFDF91CF911F9108951F
:10119000DE2BF8CFCF93DF9390E0FC01E55EF34FB9
:1011A00024918558934FFC0184918823C9F090E0E5
:1011B000880F991FFC01E85CF84FA591B491FC01E0
:1011C000EF59F34FC591D49161110DC09FB7F894B9
:1011D0008C91209582238C938881282328839FBF1C
:1011E000DF91CF910895623051F49FB7F8943C910C
:1011F000822F809583238C93E8812E2BEFCF8FB79E
:10120000F894EC912E2B2C938FBFEACF3FB7F89434
:1012100080913D0790913E07A0913F07B091400714
:1012200026B5A89B05C02F3F19F00196A11DB11D41
:101230003FBFBA2FA92F982F8827BC01CD01620F7D
:10124000711D811D911D42E0660F771F881F991F38
:101250004A95D1F708950F931F93CF93DF9300D052
:1012600000D000D0CDB7DEB70E9406090091800AF9
:101270001091810A2091820A3091830A60177107C8
:101280008207930740F46093800A7093810A8093E9
:10129000820A9093830A0091800A1091810A20911A
:1012A000820A3091830A601B710B820B930B6C32A4
:1012B000714081059105C0F2F8948091750A909172
:1012C000760A9A838983E0917A0AF0917B0ADF019A
:1012D0001196808189879091710AE091840AF0913A
:1012E000850A8091860A992309F445C09081982B3C
:1012F00098879081809589238F838F818C8388E064
:101300008B8358856F8149853B812C8189819A81A6
:10131000508347FD252F3A952083262F39F0441F0F
:1013200000C000006083000000C0F2CF38E04D91A3
:1013300060830000019761F7F093850AE093840AC7
:1013400049873B832C839A83898378940E9406097A
:101350006093800A7093810A8093820A9093830A33
:1013600029960FB6F894DEBF0FBECDBFDF91CF91A7
:101370001F910F9108959081982B98879081809567
:1013800089238F838F818E8388E08D8358856F8139
:1013900049853D812E8189819A81508347FD252F82
:1013A00000C000C0208300C000C000C000C000C05A
:1013B00060830000262F3A9541F0441F000000C0D2
:1013C00000C000C000C000C0E8CF38E04D9100C0B0
:1013D000608300C0019709F7F093850AE093840ABF
:1013E00049873D832E83AFCF8F929F92AF92BF925A
:1013F000CF92DF92EF92FF924B015C010E940609AF
:101400006B017C010E9406096C197D098E099F09F8
:10141000683E734081059105A8F321E0821A910886
:10142000A108B10888EEC80E83E0D81EE11CF11CAB
:1014300081149104A104B10429F7FF90EF90DF908B
:10144000CF90BF90AF909F908F9008952FB7F89452
:101450006091390770913A0780913B0790913C0762
:101460002FBF0895EF92FF920F931F93CF93DF93B7
:10147000FC0180819181A481B58112962D913C91CE
:101480008217930790F5A281B381CD91DD912EEF64
:101490003FEF2C1B3D0B23703327B383A2830196B0
:1014A000918380837D01CB018E014C175D0708F489
:1014B0008A01600F711F6817790739F0D7014D91C4
:1014C0007D01DC014D93CD01F6CF2C0F3D1F8281B4
:1014D0009381820F931F93838283CE01DF91CF91FB
:1014E0001F910F91FF90EF9008958FEF9FEFF6CF30
:1014F0000F931F93CF93DF936115710509F460C0BB
:101500008B01EC01BC016B5E7F4F41E050E0C801F4
:101510000E94320ABE016A5E7F4F41E050E0C8017E
:101520000E94320ABE016F5E7F4F42E050E0C80168
:101530000E94320A8D89813081F5D8014D915C91EC
:1015400011971496ED91FC911597228133814217E2
:10155000530718F51296ED91FC91139761917191D3
:101560001396FC93EE9312974F5F5F4F11965C9327
:101570004E93FC8BEB8B2EEF3FEF261B370B23702C
:101580003327260F371F12964D915C911397240F26
:10159000351F13963C932E93129721E030E0388B41
:1015A0002F879E85992361F02B893C8949895A8927
:1015B000EC85FD856E89DF91CF911F910F91199474
:1015C000DF91CF911F910F9108950F931F93CF93A8
:1015D000DF93EB018B01040F151FC901C017D10761
:1015E00029F0BC0189910E949606F8CFDF91CF9136
:1015F0001F910F910895CF93DF93EC018A859B850E
:10160000DC01ED91FC910190F081E02D603C29F02E
:101610006B3D79F0DF91CF9119946BED19958A8527
:101620009B85DC01ED91FC910190F081E02D6CED4A
:10163000F1CF6BED19958A859B85DC01ED91FC91CD
:101640000190F081E02D6DEDE5CFEF92FF920F93C9
:101650001F93CF93DF937C01EB018B01040F151FC8
:10166000C017D10729F06991C7010E94FB0AF8CF82
:10167000DF91CF911F910F91FF90EF900895CF933D
:10168000DF93EC01BC01635F7F4F42E050E00E94BA
:10169000250B8A859B85DC01ED91FC910190F08101
:1016A000E02D60ECDF91CF911994CF92DF92EF9211
:1016B000FF920F931F93CF93DF931F921F92CDB78B
:1016C000DEB78C017B015A83498342E050E0BE01C2
:1016D0006F5F7F4F0E94250BF8012585368542E01C
:1016E00050E0BE016F5F7F4FC8010E94E50AF8011C
:1016F00096878587C980DA80CE0CDF1CEC14FD0448
:1017000089F0F7016081C8010E94FB0AF801658534
:101710007685F70181917F010E949606F8019687F0
:101720008587ECCFE980FA80F194E194F108F3E049
:10173000EF22FF2481E0E81AF10870F060E0C801B0
:101740000E94FB0AF8016585768580E00E94960676
:10175000F80196878587EECF0F900F90DF91CF919C
:101760001F910F91FF90EF90DF90CF900895EF922F
:10177000FF920F931F93CF93DF9300D000D01F925F
:101780001F92CDB7DEB77C017A8369832B833C83BC
:101790004D835E8318870F83DC011E961C921E9278
:1017A0001D971A968D919C91DC01ED91FC91019011
:1017B000F081E02D60EC199542E050E0BE016F5FD2
:1017C0007F4FC7010E94250BF7012585368542E032
:1017D00050E0BE016F5F7F4FC7010E94E50AD7014D
:1017E0001E969C938E931D9742E050E0BE01695F68
:1017F0007F4FC7010E94250BF7012585368542E002
:1018000050E0BE01695F7F4FC7010E94E50AD70122
:101810001E969C938E931D9744E050E0BE016D5F31
:101820007F4FC7010E94250BF7012585368544E0CF
:1018300050E0BE016D5F7F4FC7010E94E50AD701EE
:101840001E969C938E931D9728960FB6F894DEBF34
:101850000FBECDBFDF91CF911F910F91FF90EF9001
:101860000895EF92FF920F931F93CF93DF93EC01B4
:10187000EC80FD806E157F050CF070C057FF04C032
:10188000240F351F50E040E08E819F81FA01E20F66
:10189000F31F8E179F071CF49C01241B350B121697
:1018A00013060CF05BC0922F842F86958695869543
:1018B0008E9DD0018F9DB00D11246A0F7B1FAF8DBF
:1018C000B8A1A60FB71F477049F188E0841B482FC5
:1018D000682F70E0FB01E053F94FE491281708F0FE
:1018E00063C0621B71092FEF30E002C03595279568
:1018F0006A95E2F7E2230130110539F0B0F10230C8
:10190000110561F58C91E82702C08C91E82BEC93CE
:10191000941720F12C813D81A20FB31FE92FE41B06
:10192000E83078F00230110521F58E2F9C919095CA
:101930009C932C813D81A20FB31F88508830B0F753
:10194000E770EE2359F0F0E0E853F94FE4910130ED
:101950001105F9F010F10230110519F1DF91CF9165
:101960001F910F91FF90EF900895E0958C91E823DF
:10197000CECF81E00115110509F480E081959E2FFD
:101980008C932C813D81A20FB31F98509830C0F7E3
:10199000D7CF8C91E82BEC93E1CFE0958C91E823A5
:1019A000FACF8C91E827F7CF0130110509F4ADCFBC
:1019B000E0F20230110509F4A5CFAE0DBF1DAECF88
:1019C0000F931F93CF93DF9377FF04C0260F371F2A
:1019D00070E060E0DC011496CD91DC91FB01E20F38
:1019E000F31FCE17DF071CF49E01261B370B1216C0
:1019F00013064CF5FA0157FD3796A3E0F595E795E8
:101A0000AA95E1F7EC9FD001ED9FB00DFC9FB00DC2
:101A100011246A0F7B1FDC015F96ED91FC91E60FAC
:101A2000F71F4770552781E090E001C0880F4A9565
:101A3000EAF7482F0130110559F0A8F02E0F3F1F8B
:101A400002301105E1F0DF91CF911F910F910895C0
:101A50002E0F3F1FE217F307B1F38191DF011197BA
:101A6000842B8C93F7CF80952E0F3F1FE217F3073F
:101A700051F39191DF01119798239C93F7CFE217CF
:101A8000F30709F38191DF01119784278C93F7CF36
:101A90000F931F93FA01DC0156964C9156974230F2
:101AA000E9F04330A1F1413061F514964D915C911C
:101AB000DA01AE1BBF0BFD01E21BF30B77FD0BC080
:101AC000DC0116964D915C916417750724F4AB0107
:101AD000BF010E94E00C1F910F91089514964D9143
:101AE0005C91DA01A61BB70BBD0161507109DC01E5
:101AF00016964D915C91DA01AE1BBF0BFD01E21B06
:101B0000F30B77FDE8CFAF010E94310CE4CF1696BE
:101B10004D915C91DA01A61BB70BBD0161507109B3
:101B2000CDCF0F931F93FA01DC0156964C91569737
:101B30004230A9F0433091F1413019F514964D919E
:101B40005C91DA01AE1BBF0BFD013197F7FD04C0BC
:101B5000AB01BF010E94310C1F910F9108951496A3
:101B60004D915C91DA01A61BB70BBD01DC01169605
:101B70004D915C91DA01AE1BBF0BFD013197621BE9
:101B8000730BF7FDE9CFDC0116964D915C91E417DC
:101B9000F50714F7AF010E94E00CDECF16964D91C9
:101BA0005C91DA01A61BB70BBD01621B730BCECF94
:101BB000FC0177FD64C080859185681779070CF07A
:101BC0005EC057FD5CC082859385481759070CF0AD
:101BD00056C086898230B1F0833029F1813041F4DA
:101BE00084819581841B950BAB01BC016150710907
:101BF0002130310509F108F443C02230310509F4E0
:101C000063C0089584819581DC01A61BB70BBD01DB
:101C10006150710986819781DC01A41BB50BAD0170
:101C200041505109E5CF86819781861B970BBA01F8
:101C3000AC0141505109DCCFCA0157FD0796A3E022
:101C400095958795AA95E1F7A481B5818A9F900122
:101C50008B9F300D9A9F300D1124620F731F078CDC
:101C6000F0A1E02DE60FF71F4770552721E030E087
:101C700001C0220F4A95EAF78081822B8083089564
:101C8000CA0157FD079633E0959587953A95E1F798
:101C9000A481B5818A9F90018B9F300D9A9F300D52
:101CA0001124620F731F078CF0A1E02DE60FF71FC0
:101CB0004770552781E090E001C0880F4A95EAF708
:101CC000809590818923DACFCA0157FD079623E0DA
:101CD000959587952A95E1F7A481B5818A9F900112
:101CE0008B9F300D9A9F300D1124620F731F078C4C
:101CF000F0A1E02DE60FF71F4770552721E030E0F7
:101D000001C0220F4A95EAF780818227B7CF089554
:101D10008EBD00000DB407FEFDCF8EB508958CBDBD
:101D20009DBD08950895FC016370668B8481958143
:101D300026813781613039F0633029F091878087BF
:101D40003387228708953187208793878287089574
:101D50002F923F924F925F926F927F928F929F92BB
:101D6000AF92BF92CF92DF92EF92FF920F931F93A9
:101D7000CF93DF93CDB7DEB76A970FB6F894DEBF87
:101D80000FBECDBF9A8F898F7A8369834A01D22E85
:101D900018870F833701BC2CDC0159962D913C919B
:101DA0005A972115310509F015C118968D919C910E
:101DB0001997681779070CF0D7C11A968D919C91E5
:101DC000481759070CF0D0C14C2C512CB6E0CB9ED3
:101DD000600D711D11247C876B87161617060CF099
:101DE000C3C1EA2DF0E0FA87E98793E0EE0FFF1F09
:101DF0009A95E1F7F88BEF87CF01840F951F18169E
:101E000019060CF0B1C1A98DBA8D58968C9181112B
:101E100004C0BFEABD1508F4D394A98DBA8DED9125
:101E2000FC9111970284F385E02DCD011995B5E061
:101E3000DB9EC0011124E981FA81FC83EB83312C04
:101E4000212C9C0128533E4F388F2F8B4A2D50E078
:101E50005E8B4D8BEF89F88DE20DF31D44919E82D0
:101E60008D82D12CC12C69817A81620D731D7A8B90
:101E7000698B842F90E09C8B8B8BE98DFA8DA081F0
:101E8000B18140FF82C0F1E0BF126FC0AF126DC0E0
:101E90001C96ED91FC912F813885A4014C0D5D1DA0
:101EA00069897A89898D9A8D1995EB89FC89F595CF
:101EB000E7954E2F5FEFC51AD50A6D817E818D891A
:101EC0009E89680F791F7E836D8398E0C916D104BF
:101ED00081F6AFEF2A1A3A0AEB81FC81E40DF51D79
:101EE000FC83EB83F5E02F16310409F0B3CF2F818B
:101EF000388526153705B9F0A98DBA8DED91FC917D
:101F0000B1E0BB1257C0AB1255C069817A816B5FDB
:101F10007F4F0088F189E02D830128E030E0A401A3
:101F2000898D9A8D1995A98DBA8DED91FC91119796
:101F30000688F789E02DCD016A960FB6F894DEBFCA
:101F40000FBECDBFDF91CF911F910F91FF90EF900A
:101F5000DF90CF90BF90AF909F908F907F906F90C9
:101F60005F904F903F902F9019941E96ED91FC91A9
:101F7000EF80F88409851A8592014D815E816B811D
:101F80007C81898D9A8D199590CF2F813885261562
:101F9000370509F48ACF31E0B31207C0A31205C098
:101FA0001C96ED91FC91930178CF1E96ED91FC91DA
:101FB0007301E0CF6B857C85641975090684F7850C
:101FC000E02D73010F8518899201A401898D9A8DE6
:101FD0001995A9CFF901349694913297459154916E
:101FE000D91AB7E0DB9E400D511D1124F90125914E
:101FF00034913C8B2B8BFA0125903490FA01329668
:10200000749031963491398B329664903196449025
:1020100041E04C1518F04A1508F07FC0662D062CDB
:10202000000C770B7C836B83842D042C000C990BA4
:102030009E838D83A98DBA8DED91FC9111970284B9
:10204000F385E02DCD011995512CD12CC12CEA2D11
:10205000F0E0FA87E9872B2D30E03C872B87A4013D
:10206000440D511D47FC5A95588F4F8B69817A81D9
:10207000660D711D67FC7A957E876D877989C71615
:1020800008F051CF2C2D30E04D815E81420F531F5F
:10209000A985BA854A9FC0014B9F900D5A9F900D0C
:1020A0001124FC01E80DF91DF88BEF87852D612CBB
:1020B0004F89588D420F531F5E8B4D8B671408F06C
:1020C00050C044244394480E877041F4C1010196E6
:1020D000EB89FC89E20DF31DD4901C01D7FE19C0D9
:1020E000A98DBA8DED91FC91662D70E0B1E0BB1227
:1020F00019C0AB1217C02D853E85620F731F048473
:10210000F585E02D2F8138854D895E89898D9A8DE1
:102110001995DD0C6394842DD1CF1E821D821C8203
:102120001B8288CF4B815C81640F751FAB85BC859A
:102130006A9FC0016B9F900D7A9F900D1124698159
:102140007A81680F791F0684F785E02DEF80F88487
:1021500009851A859D014F855889898D9A8D199514
:10216000D8CF570CC3948ACF6A960FB6F894DEBFC7
:102170000FBECDBFDF91CF911F910F91FF90EF90D8
:10218000DF90CF90BF90AF909F908F907F906F9097
:102190005F904F903F902F9008958F929F92AF92B3
:1021A000CF92EF92FF920F931F93CF93DF93EC01A7
:1021B000262F898D9A8D009709F051C06A30D1F48D
:1021C0001D861C868D8948E0849F900111248E8590
:1021D0009F85820F931F9F878E8781E090E0DF911C
:1021E000CF911F910F91FF90EF90CF90AF909F9064
:1021F0008F9008956D3089F3CC88AD888F898823BE
:10220000C1F08C859D8536E0C39E800D911D112403
:10221000488559854817590764F44E855F851D86A2
:102220001C8638E0A39EC0011124840F951F9F8750
:102230008E87EA88FB88088919894E855F856C85B9
:102240007D85CE010E94A80E2C898C859D8546E057
:10225000249F800D911D11249D878C87BECF6A30ED
:1022600069F41D861C86FC013896E4912D898E85C3
:102270009F85E29F800D911D1124ADCF6D3009F433
:10228000ACCFFC0134963491631708F4A6CF329694
:10229000E491E61708F4A1CFFC0132968590949062
:1022A000462F431B342F47E0349F800C911C112490
:1022B000F401329634913196E4913323A9F1EE235F
:1022C00099F1CC88F4013596E491AD884F89442387
:1022D00001F10E2E000CFF0BE30FF11DCE9EA001AD
:1022E000CF9E500D11246C857D85460F571F688544
:1022F0007985641775076CF44E855F851D861C868D
:10230000FC013896E491AE9E400D511D11245F876B
:102310004E87EA88FB88088919894E855F856C8518
:102320007D85CE010E94A80EF4013496E4912C899B
:102330008C859D85E29F800D911D11248DCF6F921C
:102340007F928F929F92AF92BF92CF92DF92EF9245
:10235000FF920F931F93CF93DF93EC016B015A0110
:1023600039014801E881F9810284F385E02D19954E
:10237000E881F9810288F389E02D87019301A501A5
:10238000B601CE011995A501480D591D41505109BD
:10239000E881F9810288F389E02D9301B601CE012D
:1023A0001995E881F9810088F189E02D9401A50152
:1023B000B601CE011995C60CD71CB6016150710942
:1023C000E881F9810088F189E02D9401A501CE0111
:1023D0001995E881F9810688F789E02DCE01DF9112
:1023E000CF911F910F91FF90EF90DF90CF90BF9012
:1023F000AF909F908F907F906F9019946F927F9283
:102400008F929F92AF92BF92CF92DF92EF92FF9204
:102410000F931F93CF93DF935C01EB016A01490196
:1024200038018701DC01ED91FC916217730719F502
:10243000641675062CF0962D872D3A01C92ED82EDC
:102440009601261937092F5F3F4F048CF58DE02D3B
:10245000A301BE01C5011995DF91CF911F910F9185
:10246000FF90EF90DF90CF90BF90AF909F908F90B4
:102470007F906F9008954615570591F426173707FA
:1024800024F0892D4B01C22FD82F9E01281939091C
:102490002F5F3F4F068CF78DE02DA601B401DACFF8
:1024A0000284F385E02D1995D501ED91FC91048806
:1024B000F589E02D83019401A601BE01C50119959E
:1024C000D501ED91FC910688F789E02DC501DF91DA
:1024D000CF911F910F91FF90EF90DF90CF90BF9021
:1024E000AF909F908F907F906F901994EF92FF9292
:1024F0000F931F93DC011A960D911C911B97189650
:102500002D913C911997ED91FC9100A0F1A1E02D46
:102510007B0150E040E070E060E019951F910F9161
:10252000FF90EF9008954F925F926F927F928F92FB
:102530009F92AF92BF92CF92DF92EF92FF920F9352
:102540001F93CF93DF936C012B015A01390148018E
:10255000DC01ED91FC910284F385E02D1995E201F7
:10256000640C751CD601ED91FC91C615D7055CF481
:102570000088F189E02D87019401A501BE01C60103
:1025800019952196EFCF0688F789E02DC601DF91D6
:10259000CF911F910F91FF90EF90DF90CF90BF9060
:1025A000AF909F908F907F906F905F904F90199415
:1025B0008F929F92AF92BF92CF92DF92EF92FF9253
:1025C0000F931F93CF93DF93EC015B014A016901E5
:1025D000E881F9810284F385E02D199595012C0D90
:1025E0003D1D21503109E881F9810488F589E02DEC
:1025F00078018401A401B501CE011995E881F98122
:102600000688F789E02DCE01DF91CF911F910F91C0
:10261000FF90EF90DF90CF90BF90AF909F908F9002
:1026200019948F929F92AF92BF92CF92DF92EF92C6
:10263000FF920F931F93CF93DF93EC015B014A014D
:1026400069017801E881F9810284F385E02D19950B
:10265000C80CD91C860101501109E881F981048850
:10266000F589E02D9501A401B501CE011995E88108
:10267000F9810688F789E02DCE01DF91CF911F9176
:102680000F91FF90EF90DF90CF90BF90AF909F9011
:102690008F901994EF92FF920F931F93DC01ED91AD
:1026A000FC9100A0F1A1E02D19951F910F91FF90D1
:1026B000EF9008950F931F93DC01ED91FC91068C30
:1026C000F78DE02D19951F910F9108950F931F938A
:1026D000DC01ED91FC91048CF58DE02D19951F9195
:1026E0000F910895DC01ED91FC910084F185E02DBE
:1026F00019943F924F925F926F927F928F929F9226
:10270000AF92BF92CF92DF92EF92FF920F931F93FF
:10271000CF93DF935C017B014A016901390187E0B6
:10272000680E711C93E0759467949A95E1F72B01FC
:10273000400E511E10E000E0312CD0E0C0E0CE0190
:1027400087709927330C892B59F4FE0183E0F595A6
:10275000E7958A95E1F7E00FF11FE80DF91D349038
:1027600037FE0AC021E030E0A701B5016C0F7D1FE4
:1027700081E39AE00E9472132196CC16DD06F9F6E9
:102780008FEFE81AF80A060D171DE414F504A9F6F0
:10279000DF91CF911F910F91FF90EF90DF90CF903D
:1027A000BF90AF909F908F907F906F905F904F9071
:1027B0003F9008952F923F924F925F926F927F9237
:1027C0008F929F92AF92BF92CF92DF92EF92FF9241
:1027D0000F931F93CF93DF9300D000D0CDB7DEB718
:1027E0003C016A013E832D83FC82EB825801A41ACE
:1027F000B50AB7FE03C0B194A194B1088D809E8044
:10280000861A970A97FE03C09194819491088A14BE
:102810009B045CF0902F812F0D811E819D838E8300
:102820009C2D8D2D6B01692F782F0C151D055CF0EB
:102830009D818E817E836D83692F782F902F812FCC
:102840008601C92ED82E1601201A310A2B012D819E
:102850003E81421A530A57FE03C0519441945108D5
:10286000710137FE03C03FEFE31AF30AF594E794D2
:102870008D819E81861797075CF5A1E0B0E0BA8351
:10288000A983C016D1064CF1D301ED91FC910484CB
:10289000F585E02D2B813C81A8016D817E818A1414
:1028A0009B041CF04D815E81B801C3011995E418A9
:1028B000F508F7FE0AC02D813E8189819A81280F93
:1028C000391F3E832D83E20CF31C0F5F1F4FD9CFBE
:1028D0002FEF3FEF3A832983D4CF26960FB6F89493
:1028E000DEBF0FBECDBFDF91CF911F910F91FF9043
:1028F000EF90DF90CF90BF90AF909F908F907F90A0
:102900006F905F904F903F902F9008950895209181
:10291000EE06260F3327331F21323105ECF42091C8
:102920001207FC0190E080E0243069F082E0089515
:10293000A091EE062191AC014253594FA40FB52F3F
:10294000B11D2C930196861798F38091EE06680FBF
:102950006093EE0680E0089581E0089510921207DA
:1029600081E0809314071092130761E084E10E94D4
:102970009C0861E085E10E949C08E9EBF0E0808121
:102980008E7F808380818D7F808388E48093B800F0
:1029900085E48093BC000895CF93DF9391E09093FA
:1029A000CD068823B9F0C091B800D091BA008091CB
:1029B000BC008A7B8093BC0060E084E10E949C089C
:1029C00060E085E10E949C080E94AE14D093BA009A
:1029D000C093B800DF91CF910895E09147078091AF
:1029E0004607E81730F4F0E0E855F94F808190E0B1
:1029F00008958FEF9FEF08959091470780914607C4
:102A00002FEF3FEF981748F4E92FF0E0E855F94F22
:102A1000208130E09F5F90934707C901089580911E
:102A2000460790914707891B990B0895CF92DF9233
:102A3000EF92FF920F931F93CF93DF937C01CB0113
:102A40008A0120915107222389F0EB016B01C40E0A
:102A5000D51ECC15DD0569F06991D701ED91FC918A
:102A60000190F081E02DC7011995F3CF642F0E94EA
:102A70008714C801DF91CF911F910F91FF90EF90C4
:102A8000DF90CF900895CF93DF931F92CDB7DEB73D
:102A90006983209151072223F9F020914E072032BB
:102AA00058F021E030E0FC013383228390E080E0A5
:102AB0000F90DF91CF91089580914F07E82FF0E0BC
:102AC000E857F94F998190838F5F80934F078093E8
:102AD0004E0781E090E0ECCF61E0CE0101960E94CC
:102AE0008714F7CFCF92DF92EF92FF920F931F934D
:102AF000CF93DF93D0914E0781E0D13208F09CC094
:102B0000C09150070E9406096B017C018091120759
:102B100081116CC082E08093120781E080931407DA
:102B20008FEF8093110710923607D0933507A8E8EE
:102B3000B6E0E5E1F7E080E0D8138DC010923707EA
:102B400080913707CC0FC82BC093370780911307AC
:102B5000813009F084C0109213070E9406096B01AE
:102B60007C01809137078093BB008091C9069091CA
:102B7000CA06A091CB06B091CC06892B8A2B8B2B51
:102B8000A1F00E9406090091C9061091CA06209181
:102B9000CB063091CC066C197D098E099F0906176A
:102BA00017072807390708F442C08091BC0083FD4D
:102BB000D8CF85EC8093BC000E9406096B017C0194
:102BC00080911207823009F44CC0809111078F3F29
:102BD00009F469C080911107803209F466C08091C0
:102BE0001107803309F463C084E026C08091C906D0
:102BF0009091CA06A091CB06B091CC06892B8A2B66
:102C00008B2B09F483CF0E9406090091C90610910D
:102C1000CA062091CB063091CC066C197D098E092D
:102C20009F09061717072807390708F06FCF80910B
:102C3000C8060E94CC1485E010924F0710924E07F0
:102C400010925107DF91CF911F910F91FF90EF905C
:102C5000DF90CF9008959D9191938F5F6DCF85EE1A
:102C6000A9CF8091C9069091CA06A091CB06B091D8
:102C7000CC06892B8A2B8B2B09F4A2CF0E94060944
:102C80000091C9061091CA062091CB063091CC065E
:102C90006C197D098E099F09061717072807390740
:102CA00008F08ECFC4CF80E0C7CF82E0C5CF83E0ED
:102CB000C3CFEF92FF920F931F93CF93DF937C01CB
:102CC000C62F80914E0A90914F0A009709F459C07F
:102CD0002091520A31E0309351072093500710920F
:102CE0004F0710924E07DC01ED91FC910190F081AD
:102CF000E02D60E019958701EE24E394F12CD1E0FA
:102D0000C15080914E0A90914F0ACF3F91F1B0E2AD
:102D1000EB16F104D8F00E94721580914E0A909142
:102D20004F0A2091520AD0935107209350071092D6
:102D30004F0710924E07DC01ED91FC910190F0815C
:102D4000E02D60E01995EE24E394F12C80914E0A79
:102D500090914F0AF8016491DC01ED91FC91019092
:102D6000F081E02D1995BFEFEB1AFB0A0F5F1F4FA3
:102D7000C7CFDF91CF911F910F91FF90EF900C94EF
:102D80007215E0915E0AF0915F0A90818091640A69
:102D90008095892380838701C15008F438C0F801E9
:102DA000849120914C0A30914D0A232B29F00E94E6
:102DB000880E0F5F1F4FF0CF28E030E040E8E09131
:102DC0005A0AF0915B0A9091620A582F5423D9F065
:102DD0005081952B9083E0915C0AF0915D0A90817F
:102DE0005091630A952B9083E0915C0AF0915D0A03
:102DF00050819091630A9095952390834695215038
:102E00003109E9F6D6CF508190959523E3CFDF9134
:102E1000CF911F910F91FF90EF9008951F93CF9343
:102E2000DF93EC018D8D9E8D009721F1162F29A146
:102E300031E0309351072093500710924F071092C2
:102E40004E07DC01ED91FC910190F081E02D60E0F6
:102E500019958D8D9E8DDC01ED91FC910190F08195
:102E6000E02D612F19958D8D9E8DDF91CF911F9152
:102E70000C947215ADA5BEA59C918BA98095892354
:102E80008C938B8D9C8D892B31F0862FDF91CF9188
:102E90001F910C94880E28E030E080E8A9A5BAA51F
:102EA00099A9462F4823C1F04C91942B9C93ABA534
:102EB000BCA59C914AA9942B9C93ABA5BCA54C9115
:102EC0009AA9909594239C9386952150310931F7C6
:102ED000DF91CF911F9108954C9190959423E6CF67
:102EE000DF92EF92FF920F931F93CF93DF93809126
:102EF0004E0A90914F0A892B09F498C02091660AD6
:102F00003091670A4091680A5091690A60E074E262
:102F100084EF90E00E94A32F20513109410951090B
:102F200056954795379527952093B80065E086E13B
:102F30009CE00E9459166091350A615081E39AE045
:102F40000E940E172091370A3091380AC90107965E
:102F500097FD079633E0959587953A95E1F720918F
:102F6000350A3091360A829F8001839F100D929F0F
:102F7000100D1124C091500AD091510A80914E0A2F
:102F800090914F0A0C0F1D1F009709F48FC02091DC
:102F9000520A31E0309351072093500710924F07A7
:102FA00010924E07DC01ED91FC910190F081E02D33
:102FB00060E41995EE24E394F12CDD24D394809100
:102FC0004E0A90914F0A0C171D0709F446C0B0E253
:102FD000EB16F104D8F00E94721580914E0A909180
:102FE0004F0A2091520AD092510720935007109215
:102FF0004F0710924E07DC01ED91FC910190F0819A
:10300000E02D60E41995EE24E394F12C80914E0AB2
:1030100090914F0A6991DC01ED91FC910190F08152
:10302000E02D1995BFEFEB1AFB0AC9CF80914C0A2E
:1030300090914D0A892B31F080916F0A9091700A1E
:103040000E948F0EE091600AF091610A9081809158
:10305000650A80958923808369CF0E9472158091CB
:103060004E0A90914F0A892B09F461C020916A0A97
:1030700030916B0A40916C0A50916D0A60E074E2E5
:1030800084EF90E00E94A32F20513109410951099A
:1030900056954795379527952093B800DF91CF91A6
:1030A0001F910F91FF90EF90DF900895E0915E0ADD
:1030B000F0915F0A80819091640A892B80830C17BC
:1030C0001D0769F2899120914C0A30914D0A232BFA
:1030D00019F00E94880EF3CF28E030E040E8E0913C
:1030E0005A0AF0915B0A9091620A582F5423D9F042
:1030F0005081952B9083E0915C0AF0915D0A90815C
:103100005091630A952B9083E0915C0AF0915D0ADF
:1031100050819091630A9095952390834695215014
:103120003109E9F6CCCF508190959523E3CFE0911A
:10313000600AF091610A80819091650A892B8083F1
:10314000ADCF1F93CF93DF93EC01162F8D8D9E8D06
:10315000892BB1F12DA93EA94FA958AD60E074E2C9
:1031600084EF90E00E94A32F2051310941095109B9
:1031700056954795379527952093B80066EA111123
:1031800067EACE010E940E178D8D9E8D892B41F12D
:1031900029AD3AAD4BAD5CAD60E074E284EF90E0F8
:1031A0000E94A32F20513109410951095695479595
:1031B000379527952093B800DF91CF911F910895FF
:1031C0008B8D9C8D892B21F08EAD9FAD0E948F0E33
:1031D000EFA5F8A990818CA9809589238083CECF13
:1031E000EFA5F8A980819CA9892B8083E5CF90E089
:1031F00080E00895782F770F770F770F90E0019692
:10320000A3E0880F991FAA95E1F7B3E0472F50E09C
:1032100048175907ECF52091730A3091740A421748
:10322000530748F52091790AA62F222321F0629FA7
:1032300090011124A32FE0917F0A20917A0A309106
:103240007B0AF0917C0AEF1318C07B9F200D311D83
:103250001124E0917C0AE20FF32FF11DA083E0918D
:103260007D0AE20FF32FF11D108240917E0A240F98
:10327000311DF90110827F5FC9CF440F551F440FE4
:10328000551F240F351FE20FF32FF11D1082E1CFE0
:1032900080917A0A90917B0A892B11F00C942B096A
:1032A00008950E94B6068D3291407CF464E670E089
:1032B00080E090E00E94F4090E94B60621E08D3281
:1032C00091400CF420E0822F089521E0FCCFFC0116
:1032D00080819181009711F00C94693008952091BC
:1032E000370A3091380AC901079697FD079623E0FF
:1032F000959587952A95E1F72091350A3091360A00
:10330000829FA001839F500D929F500D112470E069
:1033100060E08091500A9091510A0C94E131AF9293
:10332000BF92CF92DF92EF92FF920F931F93CF93B2
:10333000DF9300D01F92CDB7DEB75C016B01FB01BC
:1033400001900020E9F73197E61BF70BFA83E98338
:103350001C821B828EE0E82E88E0F82E05E010E04B
:1033600020E030E0A9016BE070E0F701808D918DE5
:103370000E94B70BF50101900020E9F73197AF01EA
:103380004A195B09B501F701808D918D0E94550B9B
:1033900049815A81B601F701808D918D0E94550BAC
:1033A00042E050E0BE016F5F7F4FF701808D918D4D
:1033B0000E94550B41E050E0BE016D5F7F4FF70169
:1033C000808D918D0E94550B41E050E0BE016C5FF5
:1033D0007F4FF701808D918D0E94550BF701808DF5
:1033E000918D0E943F0B0F900F900F900F90DF91E7
:1033F000CF911F910F91FF90EF90DF90CF90BF90F2
:10340000AF900895EF92FF920F931F93CF93DF93A6
:10341000FC0101900020E9F731977F01E81AF90AD1
:103420001092FF071092FE072091EF073091F007EE
:103430004091F1075091F20757FD31C0EC0102E0D5
:1034400010E069E270E08091F3079091F4070E9428
:10345000B70BFE0101900020E9F73197AF014C1B3B
:103460005D0BBE018091F3079091F4070E94550B0C
:10347000E114F10441F0A701BE018091F30790919E
:10348000F4070E94550B8091F3079091F407DF91A8
:10349000CF911F910F91FF90EF900C943F0BDF9114
:1034A000CF911F910F91FF90EF900895FB01019034
:1034B0000020E9F73197AF01461B570BDC01ED9176
:1034C000FC910280F381E02D19940F931F93CF9309
:1034D000DF93EC01FB014481558160817181E881BA
:1034E000F9810280F381E02D19958C0167E572E086
:1034F000CE010E94561A800F911FDF91CF911F912C
:103500000F9108958F929F92AF92BF92EF92FF9288
:103510000F931F93CF93DF93CDB7DEB7A1970FB66D
:10352000F894DEBF0FBECDBF7C01FA01CB0119A21A
:10353000223008F42AE08E010F5D1F4F822E912C5D
:10354000B12CA12CBF01A50194010E94A32FF90168
:10355000CA016A300CF5605DD8016E938D01232B92
:10356000242B252B79F790E080E0109721F0BD0106
:10357000C7010E94561AA1960FB6F894DEBF0FBE7F
:10358000CDBFDF91CF911F910F91FF90EF90BF9032
:10359000AF909F908F900895695CDECF0F931F933B
:1035A000CF93DF93EC010E94821A8C0167E572E0F1
:1035B000CE010E94561A800F911FDF91CF911F916B
:1035C0000F9108950F931F93CF93DF93EC010E9407
:1035D000561A8C0167E572E0CE010E94561A800FE0
:1035E000911FDF91CF911F910F910895EF92FF925C
:1035F0000F931F93CF93DF931F92CDB7DEB76AE58A
:1036000072E088E298E00E94E21A19828EE0E82EC9
:1036100088E0F82E02E010E020E030E0A9016CE044
:1036200070E0F701808D918D0E94B70B4CE050E067
:103630006AE672E0F701808D918D0E94550B41E0A2
:1036400050E0BE016F5F7F4FF701808D918D0E942A
:10365000550BF701808D918D0E943F0B0F90DF91EC
:10366000CF911F910F91FF90EF90089567E772E05F
:1036700088E298E00C94E21A69E872E088E298E047
:103680000C94E21A0C94561A8F929F92AF92BF92AA
:10369000DF92EF92FF920F931F93CF93DF9300D0AF
:1036A00000D0CDB7DEB78C01DD24D394D8011A96B3
:1036B0008D919C91DC01ED91FC910084F185E02DD0
:1036C0001995892B09F4BDC1F80182859385DC0128
:1036D000ED91FC910284F385E02D19958B3D9105C8
:1036E00019F4F801D58AE2CFD80153962D913C9177
:1036F000803C910509F080C12830310518F4F12C87
:10370000E12CEAC0F801E784F0888485882309F475
:1037100087C068E972E0808191810E94421BD801D4
:1037200053964D915C91549770E060E02AE08D9142
:103730009C910E94821A62EA72E0F8018081918174
:103740000E94421BD8011F964D915C915097052E07
:10375000000C660B770B20E18D919C910E94821AE0
:1037600066EC72E0F801808191810E94421BD701D2
:103770004D915C9170E060E020E1F80180819181E1
:103780000E94821A60EF72E0D8018D919C910E9494
:10379000421BF701448155816681778120E1D80180
:1037A0008D919C910E94821A60EF72E0F8018081F5
:1037B00091810E94421BD70112964D915C9170E05D
:1037C00060E020E1F801808191810E94821A48E046
:1037D000A42EB12CD8018D919C91119753962D91C7
:1037E0003C91A216B306C0F460EF72E00E94421B47
:1037F000D8011F96ED91FC915097EA0DFB1D408179
:1038000050E070E060E020E18D919C910E94821A6E
:10381000BFEFAB1ABB0ADECF67E572E00E94561A13
:10382000F80183889488F2E08F1A9108D8011F96D6
:10383000AD90BC9030E020E0A401B501C8010E9429
:10384000E50AA80CB91CF501208131818217930784
:1038500071F0D8011C968C911C97882309F44FCFE6
:1038600065EA72E08D919C910E94E21A48CFF701BF
:103870008081918182309105B9F08330910509F4FE
:1038800049C0019709F0AEC069EC72E0F80180818F
:1038900091810E94E21AD8011896ED91FC9130971F
:1038A00009F42DCF19952BCFD8011C968C911C971C
:1038B000882391F066EB72E08D919C910E94421BEF
:1038C000F70144815581668177812AE030E0D80193
:1038D0008D919C910E94CE1AD80154961C921E92F2
:1038E000539755961C92E114F10409F4DFCEC701F9
:1038F00026960FB6F894DEBF0FBECDBFDF91CF91F5
:103900001F910F91FF90EF90DF90BF90AF909F902D
:103910008F900895F8018485882361F16FEB72E040
:10392000808191810E94421BD70114964D915D9137
:103930006D917C9117972AE0F801808191810E9416
:10394000821A60EF72E0D8018D919C910E94421B17
:10395000F801A080B180D70112964D915C9170E082
:1039600060E02AE0C5010E94821A67E572E0C501A5
:103970000E94561AF701A481B5818D919C911197EF
:103980001296ED91FC911397009719F4309709F472
:10399000B6CEFE82ED8228E0E20EF11CFC82EB82C4
:1039A0001A821982309709F4AACE0097B9F01496BA
:1039B0002D913C91A90155954795840F951F20FFA6
:1039C00008C0DC012D913C91E20FF31F0190F081C2
:1039D000E02DBE016F5F7F4F199591CECE0101960C
:1039E00019958DCEF8018485882309F488CE64ED7D
:1039F00072E08081918138CFF8014589442371F0CC
:103A00008C3D910531F08D3D910529F48BED90E0D1
:103A100002C080EC90E0D80155961C92F8014189D3
:103A200052892417350708F041CE47855089B901DE
:103A30006F5F7F4F748B638B240F351FD9018C937D
:103A400035CEF12CE12C53CFCF92DF92EF92FF9243
:103A5000CF93DF93EC010E94260A6B017C010E9448
:103A6000260A6C197D098E099F09603D7740810502
:103A7000910560F4CE010E94441B009781F3DF9111
:103A8000CF91FF90EF90DF90CF90089590E080E08D
:103A9000F6CFCF930E946F1910923E0A10923D0A02
:103AA0001092400A10923F0AC2E0C093450AC093A8
:103AB000460A66E078E081E39AE00E94651AC093C6
:103AC000450AC093460A0E9451196FED72E088239F
:103AD00011F06AED72E081E39AE00E94E21A81E05F
:103AE0008093450A8093460A81E30E947008892BDF
:103AF00031F466EE72E081E39AE00E94421B80E3BB
:103B00000E947008892B31F46AEE72E081E39AE03A
:103B10000E94421B88E10E947008892B31F46EEEEE
:103B200072E081E39AE00E94421B89E10E947008E2
:103B3000892B31F462EF72E081E39AE00E94421B2C
:103B400088E30E947008892B31F466EF72E081E30C
:103B50009AE00E94421B87E30E947008892B31F48F
:103B600069EF72E081E39AE00E94421BCF910C94CE
:103B700070170E94D3310F931F93CF93DF93EC0103
:103B800088819981009759F02A813B812617370750
:103B900030F081E0DF91CF911F910F9108958B015B
:103BA0006F5F7F4F0E94F230009759F099838883AE
:103BB0001B830A832C813D81232B59F7FC01108242
:103BC000E8CF80E0E7CFEF92FF920F931F93CF9360
:103BD000DF93EC017B018A01BA010E94BB1D2881A1
:103BE0003981811114C02115310519F0C9010E94D4
:103BF0006930198218821D821C821B821A82CE01B2
:103C0000DF91CF911F910F91FF90EF9008951D8349
:103C10000C83B701C9010E94FC31F1CF0F931F93B0
:103C2000CF93DF938C01EC0109900020E9F72197F5
:103C3000C81BD90BBE0186E098E00E94BB1D2091F5
:103C4000060830910708811117C02115310519F0B8
:103C5000C9010E946930109207081092060810925C
:103C60000B0810920A081092090810920808DF91B8
:103C7000CF911F910F910895D0930B08C0930A081C
:103C8000B801C901DF91CF911F910F910C94FC31C4
:103C90008F929F92AF92BF92CF92DF92EF92FF925C
:103CA0000F931F93CF93DF931F921F92CDB7DEB771
:103CB0008C017B01DC0111961C921E9213961C92C2
:103CC0001E92129715961C921E92149750E040E097
:103CD00069E572E00E94E31DF701A281B381AD9016
:103CE000BD90EEEFFFEFEA19FB096F0183E0C822F8
:103CF000DD24F701B383A2838081918101969183B2
:103D00008083F1E0AF1AB108D7011296ED91FC91D2
:103D1000BFEFAB16BB0641F1CF010196D701139659
:103D20009C938E931297808189831A82F8018480F4
:103D30009580FFEF8F1A9F0AB401C8010E94BB1D36
:103D40008823F9F2D8012D913C91119714968D9109
:103D50009C91BE016F5F7F4F820F931F0E94FC31C9
:103D6000F80195828482CDCFEC0DFD1DD70113960D
:103D7000FC93EE931297C8010F900F90DF91CF91B3
:103D80001F910F91FF90EF90DF90CF90BF90AF9079
:103D90009F908F90089585ED8093BC008091C90617
:103DA0009091CA06A091CB06B091CC060796A11DB2
:103DB000B11D23E0B695A795979587952A95D1F7DC
:103DC0002091BC0024FD03C0109212070895409179
:103DD000C9065091CA066091CB067091CC06452B5E
:103DE000462B472B69F30097A105B10541F025E368
:103DF0002A95F1F700000197A109B109E1CF80915F
:103E0000C8060C94CC140F931F93CF93DF93CDB7B8
:103E1000DEB72C970FB6F894DEBF0FBECDBF8C0176
:103E20006BEF72E088E298E00E94421BB801CE017D
:103E300001960E94481EBE016F5F7F4F88E298E0A6
:103E40000E94651A6CE073E088E298E00E94421BD1
:103E5000B801CE0107960E94481EBE01695F7F4FE0
:103E600088E298E00E94651A8D819E81892BD1F0AD
:103E70006AE672E089819A810E94F331892B91F47C
:103E80008B859C85892B71F062E173E08F81988529
:103E90000E94F331892B31F481E090E090934A073E
:103EA00080934907CE0107960E946719CE010196BB
:103EB0000E9467192C960FB6F894DEBF0FBECDBFD7
:103EC000DF91CF911F910F9108950F931F93CF937F
:103ED000DF93CDB7DEB7CF57D1090FB6F894DEBF69
:103EE0000FBECDBF8C01FC0101900020E9F7319796
:103EF000E81BF90BE034F10580F086E193E00E94C5
:103F0000651FC158DF4F0FB6F894DEBF0FBECDBF9F
:103F1000DF91CF911F910F91089562E473E0CE017C
:103F200001960E94FC3168EF75E0CE0101960E9477
:103F3000E83165E074E0CE0101960E94E831B801F5
:103F4000CE0101960E94E8316EE473E0CE01019645
:103F50000E94E83182E597E00E94FC0618161906D7
:103F600084F6BE016F5F7F4F82E597E00E94E21A00
:103F700082E597E00E94BC07C4CF4F925F926F9298
:103F80007F929F92AF92BF92CF92DF92EF92FF9279
:103F90000F931F93CF93DF93CDB7DEB7CF57D109E0
:103FA0000FB6F894DEBF0FBECDBF82E597E00E944A
:103FB0002D07181619060CF09AC18E010F5F1F4FBE
:103FC0008EE2D8011D928A95E9F780E1E8E7F6E0F4
:103FD000DF01282F1D922A95E9F7E8EEF5E0DF01D1
:103FE0001D928A95E9F7E8EFF5E080E8DF011D9280
:103FF0008A95E9F7912CF12CE12CD12CC12C88EE7B
:10400000482E83E0582E612C712C82E597E00E94A7
:104010002D0718161906B4F5409256075092570707
:1040200060925807709259075801AE0CBF1C0E944D
:10403000260A60935A0770935B0780935C079093FE
:104040005D0782E597E00E940B0797FF67C10E941A
:10405000260A20915A0730915B0740915C075091E6
:104060005D07621B730B840B950B209156073091F3
:1040700057074091580750915907621773078407F3
:104080009507F8F2FFEFCF1ADF0A64E670E080E0F0
:1040900090E00E94F409C701B4E1CB16D10409F401
:1040A0004AC17C01B2CFF801EE0DFF1D20812832FC
:1040B00009F448C1293281F7800F911FFC01108259
:1040C0008CEA93E0992009F433C164E074E0C801FC
:1040D0000E94782FBC0188E796E00E94FC3165E0E1
:1040E00074E090E080E00E94782FBC0188EE95E0BB
:1040F0000E94FC316EE473E090E080E00E94782F33
:10410000BC0188EF95E00E94FC3188E796E0DC0175
:104110000D900020E9F7CD0189579640039740F0B4
:104120008091E805882321F08091F805811103C072
:1041300087E094E0FDC00E94260A6FE274E088E701
:1041400096E00E94F33163E374E0892B09F473C0B5
:104150006DE374E088E796E00E94F331892B09F063
:1041600045C06AE374E088EE95E00E94F331892B44
:1041700071F061E474E088EE95E00E94F331892BE0
:10418000B1F481E090E090934C0780934B0788EF67
:1041900095E0FC0101900020E9F7CF01895F95408F
:1041A0008034910508F47AC084E794E0C1C066E4E5
:1041B00074E088EE95E00E94F331892B39F481E0B8
:1041C00090E090934A0780934907E1CF6CE474E054
:1041D00088EE95E00E94F331892B09F05CC081E004
:1041E00090E09093E7058093E605D1CF62E173E01C
:1041F00088EF95E00E94FC3162E574E088E796E084
:104200000E94F331892B09F046C066E574E088EE20
:1042100095E00E94F331892B99F481E30E947008A4
:10422000892B09F0B4CF80E30E947008892B09F430
:10423000AECF60E374E088EF95E00E94FC31A7CF39
:104240006DE574E088EE95E00E94F331892B91F4DE
:1042500080E30E947008892B09F099CF81E30E94C6
:104260007008892B09F493CF80910002882309F408
:104270008ECFDFCF64E674E088EE95E00E94F331E4
:10428000892B09F484CF6BE674E088EE95E00E94F8
:10429000F331892B71F287EA94E04AC061EA74E055
:1042A000C8010E94FC3168EE75E0C8010E94E83147
:1042B00065E074E0C8010E94E83168EF75E0C8016C
:1042C0000E94E8316EE473E0C8010E94E83182E5A3
:1042D00097E00E94FC06181619064CF4B80182E516
:1042E00097E00E94E21A82E597E00E94BC07C1585D
:1042F000DF4F0FB6F894DEBF0FBECDBFDF91CF9179
:104300001F910F91FF90EF90DF90CF90BF90AF90F3
:104310009F907F906F905F904F900895D5018C9300
:10432000C70101968D3291050CF4BDCE80E593E076
:104330000E94651FDCCF89ED93E09110F9CF82E7F1
:1043400093E0F6CF99249394A7CE4F925F926F9209
:104350007F928F929F92AF92BF92CF92DF92EF9215
:10436000FF921F93CF93DF9385EC98E00E94441B4C
:1043700086E10E947008892B59F08091E505811132
:1043800007C08091E6059091E705892B09F456C096
:1043900061E088E30E949C0861E08AE30E949C0837
:1043A00060E083E00E949C0860E085E00E949C0839
:1043B00060E086E00E949C0860E087E00E949C0824
:1043C0008091E6059091E705892B39F081E0809393
:1043D000E5051092E7051092E60586E10E94700857
:1043E000892B61F48EED94E00E940E1E0E94491DFF
:1043F00064EF71E080E090E00E94F4098091E505AF
:10440000882381F01092E50586E10E947008892BCF
:1044100019F00E94BD1FF8CF68EE73E080E090E0D5
:104420000E94F40986E10E947008892B19F40E9409
:10443000BD1FF8CF61E083E40E94CA08C09148071D
:10444000CC2359F00E945119811107C082EE94E0EB
:104450000E940E1E81E08093E5058091E40588238B
:1044600059F00E945119811107C082EE94E00E9418
:104470000E1E81E08093E505C11108C081E30E9412
:104480007008892B19F080E30E9470080E94BD1FFC
:104490000E94260A6B017C01CBE5D9E0FE0121E0F8
:1044A00030E042E050E0138A128A84819581892BA2
:1044B00029F180819181A281B38181849284A38436
:1044C000B48426013701481A590A6A0A7B0A48143B
:1044D00059046A047B0490F0880D991DAA1DBB1D28
:1044E00080839183A283B3838189882339F0A58552
:1044F000B685109709F085C0338B228B74968AE0BD
:10450000E332F80781F614E18A899B89892B59F1F6
:10451000EC81FD818885882309F485C08E819F8187
:1045200019958A899B890297F1F48091230A9091C9
:10453000240A892BC1F08C819D81892BA1F0FE0179
:10454000812F11928A95E9F70E94260A6883798360
:104550008A839B838091230A9091240A01979093E8
:10456000240A8093230A6496EAE0C332DE0761F6E8
:104570000E94491D80E40E9470089C0191E0211571
:10458000310509F490E080910C08981779F0909328
:104590000C0860E8232B09F460E081E00E94FA181F
:1045A00064E670E080E090E00E94F40981E40E94FB
:1045B00070089C0191E02115310509F090E080918F
:1045C0000D08981791F190930D0860E8232B09F0DE
:1045D00060E082E00E94FA1864E670E080E090E01B
:1045E000DF91CF911F91FF90EF90DF90CF90BF9020
:1045F000AF909F908F907F906F905F904F900C94B2
:10460000F409878590898A179B0708F077CF338B49
:10461000228B0196908B87878A179B0708F46ECFB1
:10462000538B428B6BCF19957CCFDF91CF911F912C
:10463000FF90EF90DF90CF90BF90AF909F908F90C2
:104640007F906F905F904F9008954F925F926F921E
:104650007F928F929F92AF92BF92CF92DF92EF9212
:10466000FF924B015C010E94260A2B013C010E9433
:10467000260A6B017C010E94A521C418D508E60812
:10468000F7088C149D04AE04BF0488F7FF90EF90E8
:10469000DF90CF90BF90AF909F908F907F906F9062
:1046A0005F904F900895CF9380E30E947008892B0C
:1046B00019F080E0CF91089581E30E947008892B62
:1046C000C1F38BEE94E00E940E1EC1E0C093E4059E
:1046D00060E086E00E949C0861E087E00E949C0800
:1046E00083EF94E00E940E1E60EE7EE280E090E098
:1046F0000E94252360E083E00E949C0861E085E041
:104700000E949C0886EF94E00E940E1E60E573EC08
:1047100080E090E00E94252389EF94E00E940E1E25
:104720001092E405C093000281E0C4CFCF930E94B1
:104730005119C82F811104C0C0E08C2FCF9108956A
:1047400088E10E947008892BB9F789E10E947008FE
:10475000892B91F782E095E00E940E1E60E880E0D0
:104760000E94FA1860E087E30E949C086CE271E006
:1047700080E090E00E94F40961E087E30E949C08D9
:1047800081E0809348076CE075E08DE195E00E9440
:104790008F1960E27EE480E090E00E94252381E3AF
:1047A0000E947008892B29F080E30E947008892BF1
:1047B000B1F760E080E00E94FA1810924807BDCF80
:1047C0001F920F920FB60F9211240BB60F922F93D8
:1047D0003F934F935F936F937F938F939F93AF9389
:1047E000BF93EF93FF9388E298E00E944D07FF91FB
:1047F000EF91BF91AF919F918F917F916F915F9159
:104800004F913F912F910F900BBE0F900FBE0F90C5
:104810001F9018951F920F920FB60F9211240BB68E
:104820000F922F938F939F93EF93FF93E09138080C
:10483000F09139088081E0913E08F0913F0882FDB7
:104840001DC09081809141088F5F8F732091420835
:10485000821741F0E0914108F0E0E85DF74F958F55
:1048600080934108FF91EF919F918F912F910F902D
:104870000BBE0F900FBE0F901F9018958081F2CF46
:104880001F920F920FB60F9211240BB60F922F9317
:104890003F934F935F936F937F938F939F93AF93C8
:1048A000BF93EF93FF9382E597E00E944D07FF913E
:1048B000EF91BF91AF919F918F917F916F915F9198
:1048C0004F913F912F910F900BBE0F900FBE0F9005
:1048D0001F9018951F920F920FB60F9211240BB6CE
:1048E0000F922F938F939F93EF93FF93E091620723
:1048F000F09163078081E0916807F091690782FD7C
:104900001DC0908180916B078F5F8F7320916C0722
:10491000821741F0E0916B07F0E0EE5AF84F958F67
:1049200080936B07FF91EF919F918F912F910F9043
:104930000BBE0F900FBE0F901F9018958081F2CF85
:104940001F920F920FB60F9211242F933F938F93C4
:104950009F93AF93BF938091390790913A07A091AD
:104960003B07B0913C073091380723E0230F2D37E8
:1049700058F50196A11DB11D209338078093390782
:1049800090933A07A0933B07B0933C0780913D0773
:1049900090913E07A0913F07B09140070196A11D5D
:1049A000B11D80933D0790933E07A0933F07B093BE
:1049B0004007BF91AF919F918F913F912F910F90A1
:1049C0000FBE0F901F90189526E8230F0296A11D89
:1049D000B11DD2CF1F920F920FB60F9211240BB6BA
:1049E0000F922F933F934F935F936F937F938F9388
:1049F0009F93AF93BF93EF93FF938091B900887F0C
:104A0000803609F44DC008F040C0883209F4A9C0CE
:104A100028F5803109F49DC0C8F4882309F4FBC04F
:104A2000883009F496C0FF91EF91BF91AF919F91AB
:104A30008F917F916F915F914F913F912F910F9047
:104A40000BBE0F900FBE0F901F901895883109F480
:104A500088C0803241F78093110714C0803409F474
:104A60009DC040F48033B9F38833E9F68093110791
:104A700085ECB0C0803509F485C0883509F496C04E
:104A8000883489F60E94CB1ECECF883909F48CC0B9
:104A900038F5883729F050F4883611F0803719F648
:104AA00083E0809312071092100757C0883809F4EA
:104AB0007BC0803919F0803809F0B5CF809110079C
:104AC000803208F071C0E091100781E08E0F809372
:104AD00010078091BB00F0E0E051F94F80833DC0AA
:104AE000803B39F0E0F4803A09F479C0883A09F063
:104AF0009ACF84E0809312071092EF061092EE0690
:104B0000E0914407F091450719958091EE068111D7
:104B10000FC081E08093EE061092CE0609C0803C63
:104B200009F4A6CF883C09F4A3CF883B09F07BCFDA
:104B3000E091EF0681E08E0F8093EF06F0E0E25304
:104B4000F94F80818093BB009091EF068091EE0633
:104B500029C0809137078093BB0085EC8093BC000F
:104B600062CF9091360780913507981758F5E091FC
:104B7000360781E08E0F80933607F0E0EB5EF84F4A
:104B80008081E9CFE091360781E08E0F8093360770
:104B90008091BB00F0E0EB5EF84F80839091360788
:104BA000809135079817C8F285E8D8CFE09136078D
:104BB00081E08E0F809336078091BB00F0E0EB5EC2
:104BC000F84F80838091140781115CCF81E080933E
:104BD000130784EA8093BC001092120724CF85EC5F
:104BE0008093BC001092120780911007803230F43D
:104BF000E0911007F0E0E051F94F1082609110074A
:104C000070E0E0914207F091430780EF96E019953C
:104C10001092100708CF1092110734CF10922B0872
:104C200010922A0888EE93E0A0E0B0E080932C0870
:104C300090932D08A0932E08B0932F082BE032E01C
:104C4000309329082093280845E351E05093350814
:104C50004093340844E351E05093370840933608BA
:104C600040E351E0509339084093380841E351E064
:104C700050933B0840933A0842E351E050933D087B
:104C800040933C0846E351E050933F0840933E0870
:104C90001092410810924208109243081092440862
:104CA0001092550710925407809356079093570718
:104CB000A0935807B0935907309353072093520796
:104CC00025EC30E030935F0720935E0724EC30E062
:104CD000309361072093600720EC30E03093630746
:104CE0002093620721EC30E030936507209364073E
:104CF00022EC30E0309367072093660726EC30E023
:104D0000309369072093680710926B0710926C0725
:104D100010926D0710926E071092280A1092270ABF
:104D20008093290A90932A0AA0932B0AB0932C0A05
:104D30008DE192E09093260A8093250A1092720AE0
:104D40001092790A1092800A1092810A1092820AB7
:104D50001092830A81E080937F0A80937C0A1092EC
:104D60007D0A92E090937E0A8093710A88E490E035
:104D70009093760A8093750A0E94CD2F90937B0AB8
:104D800080937A0A009709F44CC128E4DC011D9253
:104D90002A95E9F788E190E09093740A8093730A6A
:104DA0008DE090E09093780A8093770A8091720A60
:104DB000882341F061E08DE00E94CA0860E08DE048
:104DC0000E949C08E8E8FCE0E491F0E0EE0FFF1F91
:104DD000EF59F34F859194919093850A8093840ABB
:104DE000E8E2FCE0E491E093860A1092340A109223
:104DF000330A20E830E03093360A2093350A80E405
:104E000090E09093380A8093370A30933A0A2093BF
:104E1000390A90933C0A80933B0A1092470A1092F9
:104E20003E0A10923D0A1092400A10923F0A81E019
:104E30008093460A8093450A2FEF3FEF3093440A50
:104E40002093430A3093420A2093410A8093480AF0
:104E50001092490A10924B0A10924A0A8FE292E08D
:104E60009093320A8093310A10924D0A10924C0AA4
:104E700085E29AE090934F0A80934E0A1092510A6D
:104E80001092500A8FEF8093550A8093560A8093B0
:104E9000570A8093580A8093590A80E89AE1A6E05D
:104EA000B0E08093660A9093670AA093680AB09373
:104EB000690A80EA96E8A1E0B0E080936A0A9093DC
:104EC0006B0AA0936C0AB0936D0A80E580936F0A19
:104ED0001092700A0E94260AEBE5F9E043E25AE0DC
:104EE00024E1DF01322F1D923A95E9F76083718347
:104EF0008283938374964E175F0799F71092240A62
:104F00001092230A88E298E09093C6088093C5081F
:104F10001092C8081092C7081092CA081092C908C7
:104F20009093D0088093CF0881E08093D1088BEDD7
:104F300098E09093D5088093D40880E890E090930F
:104F4000D7088093D6081092D9081092D8081092EA
:104F5000DA0810920F0810920E08109211081092A1
:104F60001008109215081092140810921708109249
:104F7000160810921B0810921A0810921D08109221
:104F80001C081092210810922008109223081092F9
:104F9000220885EC98E0909327088093260881E406
:104FA0000E94700821E0892B09F020E020930D0871
:104FB00080E40E94700821E0892B09F020E0209312
:104FC0000C08109207081092060810920908109217
:104FD000080810920B0810920A0850E040E069E5BA
:104FE00072E086E098E00E94E31D1092F6071092AE
:104FF000F5071092F8071092F7071092FD0785EC5D
:1050000098E09093F4078093F3078FEF9FEFDC0114
:105010008093EF079093F007A093F107B093F20706
:1050200008951092760A1092750A1092740A1092DE
:10503000730AB6CECF93DF9300D01F921F92CDB7E5
:10504000DEB7789484B5826084BD84B5816084BD08
:1050500085B5826085BD85B5816085BD80916E0016
:10506000816080936E001092810080918100826047
:105070008093810080918100816080938100809184
:1050800080008160809380008091B1008460809373
:10509000B1008091B00081608093B0008091910058
:1050A0008260809391008091910081608093910053
:1050B000809190008160809390008091A100826037
:1050C0008093A1008091A10081608093A1008091D4
:1050D000A00081608093A000809121018260809374
:1050E0002101809121018160809321018091200123
:1050F00081608093200180917A00846080937A009F
:1051000080917A00826080937A0080917A00816039
:1051100080937A0080917A00806880937A00109260
:10512000C1008091770A9091780A97FD08C061E0EC
:105130000E94CA0860E08091770A0E949C0881E082
:105140008093720A4091750A5091760A70E060E08F
:1051500080917A0A90917B0A0E94E13180917A0ACB
:1051600090917B0A892B11F00E942B098091500AA3
:105170009091510A892B11F10E946F192091370AE1
:105180003091380A8091350A9091360A21323105E2
:105190000CF0F3C2B9016052710977FF02C06F5F72
:1051A0007F4F759567958357910997FD019600E2AA
:1051B00010E023E730E044E657E0F2C22091370ADE
:1051C0003091380AC901079697FD0796B3E0959587
:1051D0008795BA95E1F72091350A3091360AAC01EE
:1051E000429FC001439F900D529F900D11240E9439
:1051F000CD2F9093510A8093500A892B09F0BCCF90
:105200000E946F1983E08093450A8093460A81E0EB
:1052100090E09093440A8093430A9093420A8093CB
:10522000410A10923E0A10923D0A1092400A1092D2
:105230003F0A8093490A6AE275E081E39AE00E949E
:10524000561A0E947017E0916207F091630722E0FE
:105250002083E0915E07F0915F071082E091600784
:10526000F09161078FEC808310926A07E0916607E6
:10527000F091670796E09083E0916407F0916507ED
:10528000808180618083E0916407F091650780816F
:1052900088608083E0916407F09165078081806871
:1052A0008083E0916407F091650780818F7D808322
:1052B000E0913808F09139082083E0913408F091AA
:1052C00035081082E0913608F091370880E180833C
:1052D00010924008E0913C08F0913D089083E091E5
:1052E0003A08F0913B08808180618083E0913A0820
:1052F000F0913B08808188608083E0913A08F091CA
:105300003B08808180688083E0913A08F0913B08F7
:1053100080818F7D808361E08AE30E949C0861E048
:105320008AE30E94CA0861E088E30E949C0861E069
:1053300088E30E94CA0861E087E30E949C0861E05C
:1053400087E30E94CA0860E083E00E949C0861E055
:1053500083E00E94CA0860E085E00E949C0861E04A
:1053600085E00E94CA0860E086E00E949C0861E037
:1053700086E00E94CA0860E087E00E949C0861E025
:1053800087E00E94CA0861E088E30E949C0862E00E
:1053900081E30E94CA0862E080E30E94CA0862E0DA
:1053A00088E10E94CA0862E089E10E94CA0862E0BE
:1053B00082E40E94CA0862E086E10E94CA0862E0B4
:1053C00081E40E94CA0862E080E40E94CA0860E0AA
:1053D0008BE30E94CA0860E080E00E94FA1860E057
:1053E00081E00E94FA1860E082E00E94FA186FE201
:1053F00075E088E298E00E94421B87EC98E06C011F
:10540000990FEE08FF088091CF089091D008DC0139
:10541000ED91FC910190F081E02D60EC199510E088
:1054200000E0A701960161E070E085EC98E00E9441
:10543000B70B85EC98E00E943F0BA090CD08B09090
:10544000CE081092CE081092CD0885EC98E00E940C
:10545000241D8C01892B09F4A1C38091D108F80186
:105460004481558166817781C416D506E606F70624
:1054700009F079C3882341F06EEC72E08091C50891
:105480009091C6080E94E21AB092CE08A092CD0870
:1054900068E375E088E298E00E94E21A86EF9AE1FC
:1054A000909311088093100886E39BE1909317086E
:1054B000809316088CE39BE190931D0880931C0851
:1054C00083E09FE1909323088093220804E01CE08E
:1054D000F8016491611167C38EE098E06C01990F47
:1054E000EE08FF0820E130E0B701A60182E597E071
:1054F0000E94CE1A04E010E020E030E0A9016AE04A
:1055000070E080912608909127080E94B70BC9820D
:10551000DA82EB82FC8244E050E0BE016F5F7F4F95
:1055200080912608909127080E94550B84E198E00D
:10553000092E000CAA0BBB0B89839A83AB83BC8317
:1055400044E050E0BE016F5F7F4F8091260890914C
:1055500027080E94550B8AE198E0092E000CAA0B3F
:10556000BB0B89839A83AB83BC8344E050E0BE01CC
:105570006F5F7F4F80912608909127080E94550BFE
:1055800080E298E0092E000CAA0BBB0B89839A835A
:10559000AB83BC8344E050E0BE016F5F7F4F8091DE
:1055A0002608909127080E94550B8091260890911B
:1055B00027080E943F0B1D828FE097E29A83898320
:1055C0008FEE97E09093F6078093F50788E79AE0CF
:1055D0009093F8078093F7071092FA071092F90753
:1055E00025EF37E003E010E0032E000C440B550BD1
:1055F00068E270E08091F3079091F4070E94B70B86
:105600004CE050E060E575E08091F3079091F4077D
:105610000E94550B42E050E0BE016F5F7F4F8091CA
:10562000F3079091F4070E94550B41E050E0BE0152
:105630006B5F7F4F8091F3079091F4070E94550BA9
:105640008091F3079091F4070E943F0B8091F3073C
:105650009091F4070E94241D009709F0AEC281E3E7
:105660000E947008892B39F480E30E94700860E37F
:1056700074E0892B61F480E30E947008892B59F44F
:1056800081E30E947008892B31F062E173E08DE5BF
:1056900095E00E948F1981E30E947008892B91F098
:1056A00080E30E947008892B69F088E10E947008ED
:1056B000892B41F489E10E947008892B19F481E05B
:1056C0008093480760E088E30E949C08FF24F394DD
:1056D00084E1E82E98EB492E9BE0592E612C712C29
:1056E00029E9222E28E0322ECC24C394D12C0E940A
:1056F000A5218DE695E00E940E1E82E40E947008AE
:10570000009709F06AC2F0924D072091230A309168
:10571000240A2A30310560F4EBE5F9E02481358173
:10572000232B09F493C3019674968A309105B1F73F
:1057300080E30E947008892B09F05FC288E10E9413
:105740007008892B09F059C289E10E947008892BE1
:1057500009F053C280914D07882309F44EC280910D
:105760004B0790914C07892B09F047C210924D07C7
:105770000E9453230E94DC07BACFB901605471091B
:1057800077FF02C06F5F7F4F7595679582559109CE
:1057900097FD019600E410E022E530E044E459E092
:1057A000959587950E94791382E08093530A8091A2
:1057B0004E0A90914F0A892B09F4DFC08CE3809345
:1057C000520A109247071092460710924F07109204
:1057D0004E070E94AE148DEC96E09093450780939F
:1057E00044078EEC96E090934307809342078091A4
:1057F000590A87FD1EC061E00E94CA0861E08091DD
:10580000590A0E949C0861E070E080E090E00E94EC
:10581000F40960E08091590A0E949C086AE070E0F7
:1058200080E090E00E94F40961E08091590A0E94B2
:105830009C0880914E0A90914F0A892B09F45CC113
:105840002091660A3091670A4091680A5091690A6E
:1058500060E074E284EF90E00E94A32F20513109B0
:105860004109510956954795379527952093B800DA
:1058700064E080E697E00E9459166091370A615013
:1058800081E39AE00E940E1764E08CE597E00E94A5
:1058900059168091530A60E1813009F064E181E397
:1058A0009AE00E940E1764E088E597E00E9459167E
:1058B0008FE880936E0A8091350A9091360A80387D
:1058C000910509F032C18091370A9091380A8034ED
:1058D000910509F03AC18091530A813009F023C142
:1058E0008FE980936E0A12E16AED81E39AE00E94EB
:1058F0000E17612F81E39AE00E940E1761E881E3A1
:105900009AE00E940E1760916E0A81E39AE00E946D
:105910000E1769ED81E39AE00E940E178091530AF9
:1059200062E2813009F061EF81E39AE00E940E1794
:1059300066E082E597E00E94591680914E0A9091A8
:105940004F0A892B09F405C120916A0A30916B0A2C
:1059500040916C0A50916D0A60E074E284EF90E02F
:105960000E94A32F205131094109510956954795AD
:10597000379527952093B80043CC61E08091570A72
:105980000E94CA0861E08091580A0E94CA0880916A
:10599000570A082E000C990BFC01E558F34FE491CF
:1059A000F0E0EE0FFF1FEF59F34F25913491309344
:1059B0005F0A20935E0AFC01E55EF34FE491E093F9
:1059C000640A8091580A082E000C990BFC01E558D6
:1059D000F34FE491F0E0EE0FFF1FEF59F34FA59165
:1059E000B491B093610AA093600AFC01E55EF34FA5
:1059F000E491E093650A8C91E82BEC9380914C0A3A
:105A000090914D0A892B09F434C01FB7F894809106
:105A10004107811127C0E0EBFCE08491E0E5FCE068
:105A20009491E82FF0E0EE0FFF1FE85CF84FA5918E
:105A3000B491EC91E92321F461E085E30E949C0894
:105A400061E085E30E94CA088CB580618CBD8CB58D
:105A500080648CBD61E084E30E94CA0861E083E356
:105A60000E94CA08809141078F5F809341071FBF42
:105A7000BECE61E08091550A0E94CA0861E0809123
:105A8000560A0E94CA088091550A082E000C990BEC
:105A9000FC01E558F34FE491F0E0EE0FFF1FEF59E2
:105AA000F34F2591349130935B0A20935A0AFC01FD
:105AB000E55EF34FE491E093620A8091560A082E66
:105AC000000C990BFC01E558F34FE491F0E0EE0F68
:105AD000FF1FEF59F34FA591B491B0935D0AA093C6
